{
  "contractName": "CarLifeCycle",
  "abi": [
    {
      "constant": true,
      "inputs": [
        {
          "name": "",
          "type": "bytes32"
        }
      ],
      "name": "carInfo",
      "outputs": [
        {
          "name": "carno",
          "type": "bytes32"
        },
        {
          "name": "cartype",
          "type": "bytes32"
        },
        {
          "name": "battery",
          "type": "bytes32"
        },
        {
          "name": "motor",
          "type": "bytes32"
        },
        {
          "name": "price",
          "type": "uint256"
        }
      ],
      "payable": false,
      "stateMutability": "view",
      "type": "function"
    },
    {
      "constant": true,
      "inputs": [],
      "name": "owner",
      "outputs": [
        {
          "name": "",
          "type": "address"
        }
      ],
      "payable": false,
      "stateMutability": "view",
      "type": "function"
    },
    {
      "constant": true,
      "inputs": [
        {
          "name": "",
          "type": "uint256"
        }
      ],
      "name": "buyerInfo",
      "outputs": [
        {
          "name": "buyerAddress",
          "type": "address"
        },
        {
          "name": "name",
          "type": "bytes32"
        },
        {
          "name": "hp",
          "type": "uint256"
        }
      ],
      "payable": false,
      "stateMutability": "view",
      "type": "function"
    },
    {
      "constant": true,
      "inputs": [
        {
          "name": "",
          "type": "uint256"
        }
      ],
      "name": "buyers",
      "outputs": [
        {
          "name": "",
          "type": "address"
        }
      ],
      "payable": false,
      "stateMutability": "view",
      "type": "function"
    },
    {
      "inputs": [],
      "payable": false,
      "stateMutability": "nonpayable",
      "type": "constructor"
    },
    {
      "anonymous": false,
      "inputs": [
        {
          "indexed": false,
          "name": "carno",
          "type": "bytes32"
        }
      ],
      "name": "product",
      "type": "event"
    },
    {
      "anonymous": false,
      "inputs": [
        {
          "indexed": false,
          "name": "_buyer",
          "type": "address"
        },
        {
          "indexed": false,
          "name": "_id",
          "type": "uint256"
        }
      ],
      "name": "LogBuyCar",
      "type": "event"
    },
    {
      "constant": false,
      "inputs": [
        {
          "name": "_carno",
          "type": "bytes32"
        },
        {
          "name": "_cartype",
          "type": "bytes32"
        },
        {
          "name": "_battery",
          "type": "bytes32"
        },
        {
          "name": "_motor",
          "type": "bytes32"
        },
        {
          "name": "_price",
          "type": "uint256"
        }
      ],
      "name": "addCar",
      "outputs": [],
      "payable": true,
      "stateMutability": "payable",
      "type": "function"
    },
    {
      "constant": false,
      "inputs": [
        {
          "name": "_carno",
          "type": "bytes32"
        },
        {
          "name": "_battery",
          "type": "bytes32"
        },
        {
          "name": "_motor",
          "type": "bytes32"
        }
      ],
      "name": "editCar",
      "outputs": [],
      "payable": true,
      "stateMutability": "payable",
      "type": "function"
    },
    {
      "constant": false,
      "inputs": [
        {
          "name": "_id",
          "type": "uint256"
        },
        {
          "name": "_name",
          "type": "bytes32"
        },
        {
          "name": "_hp",
          "type": "uint256"
        }
      ],
      "name": "buyCar",
      "outputs": [],
      "payable": true,
      "stateMutability": "payable",
      "type": "function"
    },
    {
      "constant": true,
      "inputs": [
        {
          "name": "_id",
          "type": "uint256"
        }
      ],
      "name": "getBuyerInfo",
      "outputs": [
        {
          "name": "",
          "type": "address"
        },
        {
          "name": "",
          "type": "bytes32"
        },
        {
          "name": "",
          "type": "uint256"
        }
      ],
      "payable": false,
      "stateMutability": "view",
      "type": "function"
    },
    {
      "constant": true,
      "inputs": [],
      "name": "getAllBuyers",
      "outputs": [
        {
          "name": "",
          "type": "address[10]"
        }
      ],
      "payable": false,
      "stateMutability": "view",
      "type": "function"
    }
  ],
  "bytecode": "0x608060405234801561001057600080fd5b5033600260006101000a81548173ffffffffffffffffffffffffffffffffffffffff021916908373ffffffffffffffffffffffffffffffffffffffff16021790555061099a806100616000396000f300608060405260043610610099576000357c0100000000000000000000000000000000000000000000000000000000900463ffffffff1680630994e4ae1461009e5780633cc8d21c146100f65780635aee8703146101365780635be43f5c146101b957806386cba22b1461023a5780638adcfa9e1461028d5780638da5cb5b146102c5578063e377e9661461031c578063f2aa82181461039f575b600080fd5b6100f460048036038101908080356000191690602001909291908035600019169060200190929190803560001916906020019092919080356000191690602001909291908035906020019092919050505061040c565b005b6101346004803603810190808035600019169060200190929190803560001916906020019092919080356000191690602001909291905050506104b3565b005b34801561014257600080fd5b5061016160048036038101908080359060200190929190505050610506565b604051808473ffffffffffffffffffffffffffffffffffffffff1673ffffffffffffffffffffffffffffffffffffffff1681526020018360001916600019168152602001828152602001935050505060405180910390f35b3480156101c557600080fd5b506101e860048036038101908080356000191690602001909291905050506105c2565b6040518086600019166000191681526020018560001916600019168152602001846000191660001916815260200183600019166000191681526020018281526020019550505050505060405180910390f35b34801561024657600080fd5b5061024f6105f8565b6040518082600a60200280838360005b8381101561027a57808201518184015260208101905061025f565b5050505090500191505060405180910390f35b6102c360048036038101908080359060200190929190803560001916906020019092919080359060200190929190505050610679565b005b3480156102d157600080fd5b506102da61086a565b604051808273ffffffffffffffffffffffffffffffffffffffff1673ffffffffffffffffffffffffffffffffffffffff16815260200191505060405180910390f35b34801561032857600080fd5b5061034760048036038101908080359060200190929190505050610890565b604051808473ffffffffffffffffffffffffffffffffffffffff1673ffffffffffffffffffffffffffffffffffffffff1681526020018360001916600019168152602001828152602001935050505060405180910390f35b3480156103ab57600080fd5b506103ca600480360381019080803590602001909291905050506108da565b604051808273ffffffffffffffffffffffffffffffffffffffff1673ffffffffffffffffffffffffffffffffffffffff16815260200191505060405180910390f35b60a060405190810160405280866000191681526020018560001916815260200184600019168152602001836000191681526020018281525060016000876000191660001916815260200190815260200160002060008201518160000190600019169055602082015181600101906000191690556040820151816002019060001916905560608201518160030190600019169055608082015181600401559050505050505050565b816001600085600019166000191681526020019081526020016000206002018160001916905550806001600085600019166000191681526020019081526020016000206002018160001916905550505050565b600080600061051361090f565b600080868152602001908152602001600020606060405190810160405290816000820160009054906101000a900473ffffffffffffffffffffffffffffffffffffffff1673ffffffffffffffffffffffffffffffffffffffff1673ffffffffffffffffffffffffffffffffffffffff1681526020016001820154600019166000191681526020016002820154815250509050806000015181602001518260400151935093509350509193909250565b60016020528060005260406000206000915090508060000154908060010154908060020154908060030154908060040154905085565b61060061094a565b6003600a806020026040519081016040528092919082600a801561066f576020028201915b8160009054906101000a900473ffffffffffffffffffffffffffffffffffffffff1673ffffffffffffffffffffffffffffffffffffffff1681526020019060010190808311610625575b5050505050905090565b6000831015801561068b575060098311155b151561069657600080fd5b33600384600a811015156106a657fe5b0160006101000a81548173ffffffffffffffffffffffffffffffffffffffff021916908373ffffffffffffffffffffffffffffffffffffffff1602179055506060604051908101604052803373ffffffffffffffffffffffffffffffffffffffff168152602001836000191681526020018281525060008085815260200190815260200160002060008201518160000160006101000a81548173ffffffffffffffffffffffffffffffffffffffff021916908373ffffffffffffffffffffffffffffffffffffffff1602179055506020820151816001019060001916905560408201518160020155905050600260009054906101000a900473ffffffffffffffffffffffffffffffffffffffff1673ffffffffffffffffffffffffffffffffffffffff166108fc349081150290604051600060405180830381858888f193505050501580156107f9573d6000803e3d6000fd5b507f36e3ceec529848e4e232445afcae1cf65f8ec13d830aa78a316d0c80169b6cdd3384604051808373ffffffffffffffffffffffffffffffffffffffff1673ffffffffffffffffffffffffffffffffffffffff1681526020018281526020019250505060405180910390a1505050565b600260009054906101000a900473ffffffffffffffffffffffffffffffffffffffff1681565b60006020528060005260406000206000915090508060000160009054906101000a900473ffffffffffffffffffffffffffffffffffffffff16908060010154908060020154905083565b600381600a811015156108e957fe5b016000915054906101000a900473ffffffffffffffffffffffffffffffffffffffff1681565b606060405190810160405280600073ffffffffffffffffffffffffffffffffffffffff16815260200160008019168152602001600081525090565b61014060405190810160405280600a906020820280388339808201915050905050905600a165627a7a72305820b65d03867689b115385f8844d2edcc87ff1d92ba54be882b286a57217e7c1cdc0029",
  "source": "// SPDX-License-Identifier: MIT\r\npragma solidity >=0.4.22 <0.9.0;\r\n\r\ncontract CarLifeCycle {\r\n\r\n    /* 자동차 정보 */\r\n    struct Car {\r\n        bytes32 carno;     // 자동차 번호\r\n        bytes32 cartype;   // 자동차 모델명\r\n        bytes32 battery;   // 배터리 품명\r\n        bytes32 motor;     // 전기 모터 품명\r\n        uint    price;     // 출고가\r\n    }\r\n\r\n    /* 구매자 정보 */\r\n    struct Buyer {\r\n        address buyerAddress; // 주소\r\n        bytes32 name;         // 이름\r\n        uint hp;              // 핸드폰번호\r\n    }\r\n\r\n    event product (\r\n        bytes32 carno\r\n    );\r\n\r\n    mapping (uint => Buyer) public buyerInfo; // 자동차id 를 키값으로 하면 구매자의 정보를 불러오는 구조\r\n    mapping (bytes32 => Car) public carInfo;  // 자동차 번호 를 키값으로 하면 자동차의 정보를 불러오는 구조\r\n\r\n\r\n    address public owner;\r\n    address[10] public buyers;\r\n\r\n    event LogBuyCar(\r\n        address _buyer,\r\n        uint _id\r\n    );\r\n\r\n    /* 생성자 */\r\n    constructor() public {\r\n        owner = msg.sender; // contract 의 소유자(=배포할 때 사용한 계정)\r\n    }\r\n\r\n    /* 1 : 자동차 정보 등록 기능 */\r\n    function addCar(bytes32 _carno, bytes32 _cartype, bytes32 _battery, bytes32 _motor, uint _price) public payable {\r\n        carInfo[_carno] = Car(_carno, _cartype, _battery, _motor, _price);\r\n    }\r\n\r\n    /* 2 : 자동차 정보 수정 */\r\n    function editCar(bytes32 _carno, bytes32 _battery, bytes32 _motor) public payable {\r\n        carInfo[_carno].battery = _battery;\r\n        carInfo[_carno].battery = _motor;\r\n    }\r\n\r\n    /* 3 : 자동차 구매 기능(자동차id, 구매자 이름, 구매자 핸드폰번호)             */\r\n    /*   : payabl = 구매자가 구매했을 때 metamask 가 뜨고 이 함수로 eth 를 보내줌 */\r\n    function buyCar(uint _id, bytes32 _name, uint _hp) public payable {\r\n        require(_id >= 0 && _id <= 9);\r\n        buyers[_id] = msg.sender; //구매자의 주소\r\n        buyerInfo[_id] = Buyer(msg.sender, _name, _hp);\r\n\r\n        owner.transfer(msg.value); //owner 계정으로 돈 송금\r\n\r\n        emit LogBuyCar(msg.sender, _id); // 어떤 구매자가 몇번째 자동차를 구매 했는지\r\n\r\n    }\r\n    /* 4 : 자동차 구매자 확인 기능 */\r\n    function getBuyerInfo(uint _id) public view returns (address, bytes32, uint) {\r\n        Buyer memory buyer = buyerInfo[_id]; // 함수가 끝나면 buyer 변수는 휘발함\r\n        return (buyer.buyerAddress, buyer.name, buyer.hp);\r\n    }\r\n\r\n    /* 5. 구매자 정보 다 가지고 오기 */\r\n    function getAllBuyers() public view returns (address[10]) {\r\n        return buyers;\r\n    }\r\n}\r\n\r\n",
  "sourcePath": "C:\\Users\\dkrna\\Blockchain\\car-life-cycle\\contracts\\CarLifeCycle.sol",
  "compiler": {
    "name": "solc",
    "version": "0.4.25+commit.59dbf8f1.Emscripten.clang"
  },
  "schemaVersion": "2.0.2",
  "updatedAt": "2022-06-17T13:30:43.375Z"
}